:020000040800F2
:10000000F8070020ED010008493E000841280008DB
:10001000453E00085908000871470008000000002C
:10002000000000000000000000000000A9400008DF
:100030005D080008000000004D3E0008AD400008CB
:10004000070200080702000807020008070200086C
:10005000070200080702000807020008070200085C
:10006000070200080702000807020008070200084C
:10007000070200080702000807020008070200083C
:10008000070200080000000007020008070200083D
:10009000070200080702000807020008070200081C
:1000A000070200080702000807020008070200080C
:1000B00007020008070200080702000807020008FC
:1000C00007020008070200080702000807020008EC
:1000D00007020008070200080702000807020008DC
:1000E00007020008070200080702000807020008CC
:1000F00007020008070200080702000800000000CD
:1001000000000000070200080000000007020008CD
:1001100007020008000000000702000807020008AC
:10012000070200080702000807020008070200088B
:10013000070200080000000000000000070200089D
:10014000070200080702000800000000000000008D
:10015000000000000000000000000000000000009F
:10016000000000000000000000000000070200087E
:10017000070200080000000000000000000000006E
:10018000000000000702000800000000000000005E
:10019000000000000000000000000000000000005F
:1001A000000000000000000007020008070200082D
:1001B000070200080702000807020008000000000C
:1001C000000000000702000800000000000000001E
:1001D0000702000807020008DFF80CD000F02AFB35
:1001E00000480047A54B0008F80700200648804754
:1001F00006480047FEE7FEE7FEE7FEE7FEE7FEE70C
:10020000FEE7FEE7FEE7FEE7B1400008D90100087F
:100210002DE9F05F0546002092469B46884606463B
:10022000814640241BE0284641464746224600F0CE
:100230001BFA53465A46C01A914110D3114618462C
:10024000224600F002FA2D1A67EB01084F462246BB
:100250000120002100F0F9F917EB00094E41201EA2
:10026000A4F10104DFDC484631462A464346BDE896
:10027000F09FD2B201E000F8012B491EFBD270477B
:100280000022F6E710B513460A4604461946FFF762
:10029000F0FF204610BD2DE9FE4F804681EA0300A5
:1002A000C00F0C46009021F0004123F00045B8EB50
:1002B0000200A94105D24046214690461C460B4605
:1002C000024623F00040104347D0270DC7F30A0031
:1002D000C3F30A510290401A019040286BDAC3F32D
:1002E000130040F4801B0098924620B10023D2EB0B
:1002F000030A63EB0B0B01985946C0F140025046CC
:1003000000F0A3F906460D4650465946019A00F002
:10031000BBF910EB08006141002487EA115284EA1E
:10032000E7731A4340D0009A62B3019A012A4FEA58
:10033000075215DC001B61EB02014FF0004202EA9C
:100340000752CDE90042001C41F5801132462B4690
:1003500000F0F2F903B0BDE8F08F40462146F9E71E
:10036000001B61EB0201001C41F5801300185B418A
:100370002018A2F5001747EB030140EAD570B61923
:100380006D4111E06D084FEA360645EAC0754FEA47
:100390000752001B61EB0201001C41F58011490866
:1003A0004FEA30000019514132462B4603B0BDE8F8
:1003B000F04F00F0B2B90098012240000023D0EBCA
:1003C000020263EBE073009821464FEAE074B8EB59
:1003D000000061EB0401E9E783F000435BE781F093
:1003E000004158E72DE9FE4F81EA030404F0004480
:1003F00021F0004100944FF0000B23F0004350EA3D
:1004000001045ED052EA03045BD0C3F30A54C1F383
:100410000A552C44A4F2F3340194A0FB0254C1F316
:10042000130141F48011C3F3130343F4801301FB60
:10043000024400FB034E840A970A44EA815447EAC7
:100440008357A4FB076802958D0A05FB07854FEAD1
:10045000932C04FB0C542705029D4FEA065847EAEB
:100460001637B5EB08056EEB070C870E920E47EAC0
:10047000811742EA8312A7FB0201B6EB0B0164EB82
:1004800000042B0D43EA0C335E1844EB1C50DA4693
:100490005146E7FB0201C5F313044FEA0B3343EA6D
:1004A00014534FEA0432019C43EA0603A4F10C04FE
:1004B0000294009CCDE900B400F03EF903B0BDE821
:1004C000F08F00200146F9E72DE9F04D81EA0304A1
:1004D00004F0004B21F0004514464FF0000A23F0D1
:1004E000004150EA050220D054EA01021DD0C5F3B4
:1004F0000A570246C5F31303C1F31300C1F30A56AA
:1005000040F4801543F48013A7EB0608101BD64671
:1005100008F2FD3873EB050002D308F1010801E091
:1005200092185B41B8F1000F03DA00200146BDE8E4
:10053000F08D00204FF48011064684460EE0171B14
:1005400073EB050705D3121B63EB050306434CEA67
:10055000010C49084FEA300092185B4150EA01074C
:10056000EDD152EA030012D082EA040083EA0501C9
:10057000084305D0101BAB4106D20122002306E040
:1005800000224FF0004302E06FF0010253101AEB1B
:1005900006004CEB085110EB0A0041EB0B01BDE8E3
:1005A000F04D00F0BAB80EB540F23341029100218F
:1005B000CDE900110A460B4600F0BEF803B000BDBD
:1005C00000F0004230F000400AD0C10D01F560712A
:1005D000C0F3160042EA0151C208400711437047B8
:1005E00000200146704701F0004330B421F0004183
:1005F00050EA010206D00A0DA2F56072C1F31301A0
:10060000002A02DC30BC00207047440F44EAC104D9
:10061000C100E01830BC00EBC25000F047B830B564
:100620000B46014600202022012409E021FA02F5B0
:100630009D4205D303FA02F5491B04FA02F528444A
:10064000151EA2F10102F1DC30BD202A04DB203AA4
:1006500000FA02F1002070479140C2F1200320FA15
:1006600003F3194390407047202A04DB203A21FA13
:1006700002F00021704721FA02F3D040C2F12002BB
:100680009140084319467047202A06DBCB17203AD1
:1006900041FA02F043EAE07306E041FA02F3D04087
:1006A000C2F1200291400843194670470029A8BFB3
:1006B0007047401C490008BF20F00100704710B48B
:1006C000B0FA80FC00FA0CF050EA010404BF10BC40
:1006D000704749B1CCF1200421FA04F411FA0CF16D
:1006E00018BF012121430843A3EB0C01CB1D4FEAA6
:1006F00000614FEA102042BF002010BC704700EBA1
:10070000C35010440029A4BF10BC7047401C4900CE
:1007100008BF20F0010010BC704710B5141E73F123
:10072000000408DA401C41F1000192185B411A43B1
:1007300001D120F0010010BD2DE9F04D92469B46FD
:1007400011B1B1FA81F202E0B0FA80F220329046A3
:10075000FFF77BFF04460F4640EA0A0041EA0B011F
:1007600053465A46084313D0114653EA010019D0A4
:10077000C8F140025046FFF777FF05460E46504647
:1007800059464246FFF761FF084305D0012004E0C7
:1007900020463946BDE8F08D0020054346EAE07664
:1007A0002C4337430A986305E40AA0EB08000022B3
:1007B000FD0A44EA47540A3002D500200146E9E721
:1007C000010510196941DDE9084500196941BDE8D5
:1007D000F04DA2E7C1F30A52C1F3130140F2FF3317
:1007E00041F480119A4202DA00200146704740F23B
:1007F00033439A42A2F2334202DC5242FFF734BF43
:10080000FFF723BF30B5041E71F1000404DB4FF085
:100810000044404264EB0101141E73F1000405DB47
:100820001C464FF00043524263EB0403994208BF59
:10083000904230BD064C074D06E0E06840F00103F1
:1008400094E8070098471034AC42F6D3FFF7C8FC91
:100850006062000880620008FEE700007047000048
:10086000EFF3108072B600BFFEE70000B0B504469B
:1008700000F0F2F8054640F20000C2F200004068C5
:10088000611C18BF044400BF00F0E6F8401BA04202
:10089000FAD3B0BD2DE9F04F82B00D68002D00F005
:1008A000CB8041F2004400F13847C4F60004062230
:1008B0004FEAB726A04208BF0522052E38BF4FEAEF
:1008C000B722002401274FF0000E0026009209E015
:1008D0000D68013635FA06F20EF1040E04F1020439
:1008E00000F0AA8007FA06FB15EA0B08F0D0D1F851
:1008F00004A003220AF0030CACF10105A240012D73
:100900006FEA020910D88268CD6802EA0902A540A0
:100910002A4382604268CAF3001522EA0B02B540FE
:100920002A43426006E000BFBCF1030F02D14FF042
:10093000030C21E0C2688D6802EA0902A5402A433F
:10094000BCF1020FC26017D16FF0030202EA560237
:1009500002440EF01C030F25D2F820C005FA03FA5A
:100960000D692CEA0A0C05FA03F343EA0C0313623F
:10097000D1F804A00AF0030C02680CFA04F302EAAE
:1009800009021A431AF4403F0260A1D041F2600309
:10099000C4F202031A6840F2004942F001021A60F0
:1009A0001A68C4F2010902F001020192019A26F0CC
:1009B00003024FF6084A4A44CFF6FF7A52F80AC0BB
:1009C0000EF00C050F23009FAB402CEA030307FA3F
:1009D00005F52B4342F80A30D9F808C04B684CEAB9
:1009E0000805DA0258BF2CEA080540F20C4CC9F899
:1009F0000850C4F2010CDCF800209F0242EA08050E
:100A000058BF22EA0805CCF80050D9F804209D030D
:100A100042EA080758BF22EA0807C9F80470D9F863
:100A20000020DB0342EA080758BF22EA0807C9F89A
:100A3000007001274CE700BF02B0BDE8F08F000056
:100A40000069084018BF0120704700001823002AE1
:100A500008BF2823C150704740F2F030C2F20000B6
:100A60000068704740F2000040F2F031C2F200002E
:100A7000C2F2000140680A68104408607047000034
:100A800080B5032000F078F80F2000F009F8002866
:100A90001CBF012080BD00F029F8002080BD0000AF
:100AA00070B540F20006C2F200067168E1B104467A
:100AB00040F20800C2F200004FF47A720068B2FB04
:100AC000F1F1B0FBF1F001F04FF80F2C4FF0010500
:100AD00008D838B94FF0FF3021460022002500F039
:100AE0001FF83460284670BD012070BD82B041F20D
:100AF0005800C4F20200816841F001018160816800
:100B000001F0010101910199016841F080510160FA
:100B1000006800F080500090009802B000F0D0B85B
:100B200010B54EF60C5CCEF2000CDCF80030C3F3CE
:100B3000022E8EF00704042C28BF0424BEF1030308
:100B40004FF0FF3E0EFA04F438BF0023A143994052
:100B50000EFA03F39A43114300F00F0200F16043D1
:100B60000901043A03F564436244002848BF02F1D6
:100B70000C03197010BD00004EF60C51CEF20001AE
:100B80000A684FF6FF031A4060F30A2242F08060C1
:100B900040F0FD7008607047B0F5007F42D000283B
:100BA00040F0808047F21400C4F2000050F8141C9A
:100BB000C26E01F4C06122F48072B1F5806FC2662A
:100BC0002ED150F8141C012262F34A2140F8141C63
:100BD00040F20801C2F200010968322251434DF689
:100BE0008362C4F21B32A1FB0212910C026852050F
:100BF00011D54A1C0FD0026852050CD559B10268B4
:100C0000520508D5012906D00268520503D50229EC
:100C1000A1F10401EAD10068400544BF03207047F8
:100C20000020704747F21400C4F2000050F8141C72
:100C3000C26E01F4C06142F48072B1F5806FC26689
:100C4000EED150F8141C012262F34A2140F8141C22
:100C500040F20801C2F200010968322251434DF608
:100C60008362C4F21B32A1FB0212910C026852058E
:100C700011D54A1C0FD0026852050CD559B1026833
:100C8000520508D5012906D00268520503D502296C
:100C9000A1F10401EAD10068400544BF0320704778
:100CA000BEE700BF47F21400C4F2000050F8141C65
:100CB000022262F34A2140F8141C00207047000011
:100CC00047F20800C4F20000016841F4804101606D
:100CD000704700002DE9F04182B00446807841F26F
:100CE00088060007C4F2020602D400202FE000BFED
:100CF00056F8300C10F080580BD156F8300C40F0FC
:100D0000805046F8300C56F8300C00F080500190BE
:100D1000019847F20007C4F20007386840F4807079
:100D20003860FFF799FE05463868C00500F1D680A7
:100D3000FFF792FE401B0228F6D90320B8F1000FFE
:100D400005D156F8301C21F0805146F8301C21683E
:100D5000CA0713D18A0719D44A071FD40A0725D412
:100D60008A062BD44A0631D40A0637D4CA053DD4A4
:100D70008A0543D44A0549D457E000BF3268636806
:100D800022F003021A4332608A07E5D53268A3686D
:100D900022F00C021A4332604A07DFD53268E3685A
:100DA00022F030021A4332600A07D9D5326823692B
:100DB00022F0C0021A4332608A06D3D532686369D2
:100DC00022F440621A4332604A06CDD53268A369E4
:100DD00022F440521A4332600A06C7D53268E369EA
:100DE00022F440421A433260CA05C1D53268236AF0
:100DF00022F440321A4332608A05BBD53268636AF6
:100E000022F440221A4332604A050ED53268A36AA2
:100E100022F440121A43B3F5801F326005D156F810
:100E20007C2C42F4801246F87C2C0A050ED53268E0
:100E3000E36A22F440021A43B3F5800F326005D111
:100E400056F87C2C42F4801246F87C2CCA040ED54D
:100E50003268236B22F040721A43B3F1807F326014
:100E600005D156F87C2C42F4801246F87C2C8A047A
:100E70000ED53268636B22F040621A43B3F1006F03
:100E8000326005D156F87C2C42F4801246F87C2C56
:100E90004A040ED53268A36B22F040621A43B3F1C4
:100EA000006F326005D156F87C2C42F4801246F86F
:100EB0007C2C09040ED53168E26B21F040511143BE
:100EC000B2F1805F316005D156F87C1C41F480316D
:100ED00046F87C1C02B0BDE8F08100BFB06810F499
:100EE000407010D0216C88420BD0B068B16820F4FB
:100EF000407041F48031B160B16821F48031B1605B
:100F0000B060C0070CD1B068216C20F44070084379
:100F1000B0600020B8F1000F7FF419AF11E700BFF7
:100F2000FFF79AFD054641F2883700BFB068800799
:100F3000E9D4FFF791FD401BB842F7D9FDE6000068
:100F40002DE9F04700286DD042F2000AC4F2020AEF
:100F50000446DAF800000D4600F00F0088420CD27B
:100F6000DAF8000020F00F002843CAF80000DAF891
:100F7000000000F00F00A84254D1216841F2080897
:100F8000C807C4F2020803D1880740F1D880BDE049
:100F9000606802283AD0032840D158F8082C920102
:100FA00040D5D8F80420D8F8043042F20046C3F304
:100FB000031302F00302D8F804700133C0F2F40600
:100FC000032A04BF41F60036C0F2B706B6FBF3F2BF
:100FD000D8F80430C7F306277A43C3F341630227E6
:100FE00007EB4303B2FBF3F24BF20043C0F2C443FE
:100FF0009A4261D9D8F8002012F0F00F51D0890739
:101000005AD5A168002957D14BE000BF58F8081CF9
:1010100089035CBF0120BDE8F08707E058F8081C91
:10102000490503D40120BDE8F08700BFD8F80010BF
:1010300001F00C0104293FD0D8F8001001F00C0198
:10104000082939D0D8F8001001F00C010C2933D14F
:10105000D8F80410D8F8042042F20047C2F3031273
:1010600001F00301D8F804300132C0F2F40703297B
:1010700004BF41F60037C0F2B707B7FBF2F1D8F86A
:101080000420C3F306235943C2F34162022303EB56
:101090004202B1FBF2F14BF20042C0F2C442914273
:1010A0000AD9D8F80010082262F307114FF001099D
:1010B000C8F8001002E000BF4FF00009D8F8001097
:1010C00021F003010843C8F80000FFF7C5FC0646FD
:1010D00041F28837D8F80000616800F00C00B0EBEE
:1010E000810F07D0FFF7B8FC801BB842F2D903206C
:1010F000BDE8F0872168880708D4B9F1000F1ED039
:10110000D8F8000020F0F00017E000BF480705D530
:10111000D8F8000040F4E060C8F80000080706D5E1
:10112000D8F80000072262F30D20C8F80000D8F8B4
:101130000000A26820F0F0001043C8F80000DAF8C0
:10114000000000F00F00A8421BD9DAF8000020F0E0
:101150000F002843CAF80000FFF77EFC064641F264
:10116000883700BFDAF8000000F00F00A84207D06F
:10117000FFF772FC801BB842F4D90320BDE8F0876A
:101180002168480707D5D8F80000E26820F4E0603D
:101190001043C8F80000080708D5D8F800002169F6
:1011A00020F4605040EAC100C8F80000D8F8000000
:1011B00042F20041C0F2F40100F00C00042808469D
:1011C0002DD0D8F8000000F00C00082841F60030BF
:1011D000C0F2B70023D0D8F8002002F00C020C2A8D
:1011E0001CD1D8F80420D8F8043002F00302C3F36D
:1011F0000313D8F804700133032A08BF0146B1FB7A
:10120000F3F0D8F80410C7F30627C1F341610222B6
:10121000784302EB4101B0FBF1F000E00020D8F888
:10122000001045F6CC32C1F30311C0F60002515C48
:1012300040F2080201F01F0120FA01F140F2000023
:10124000C2F200000068C2F200021160BDE8F0477F
:10125000FFF726BC40F2080041F20801C2F200008C
:10126000C4F202010068096845F6DC32C1F30221CC
:10127000C0F60002515C01F01F01C8407047000039
:1012800040F2080041F20801C2F20000C4F202017B
:101290000068096845F6DC32C1F3C221C0F60002DD
:1012A000515C01F01F01C8407047000080B541F259
:1012B0000C01C4F2020151F8040C42F20042C0F2E7
:1012C000F40200F00C000428104608BF80BD51F85D
:1012D000040C00F00C00082841F60030C0F2B70002
:1012E00022D051F8043C03F00C030C2B1CBF00204F
:1012F00080BDD1F800C00B680CF0030CC3F3031ED3
:101300000B680EF1010EBCF1030F08BF024609681D
:10131000B2FBFEF0C3F30623C1F34161022258433E
:1013200002EB4101B0FBF1F080BD00002DE9F0417E
:1013300082B0002800F006810446007841F20006E1
:10134000C007C4F2020655D12078800774D42078F3
:10135000000700F197802078400700F1B7802078DF
:10136000800600F10781E069002840D0B16801F0F3
:101370000C010C2940F05681012800F0E380F06850
:10138000216A00F003028A4240F0DC80626A6FF05A
:101390000F0300F0F00103EB0212914240F0D28003
:1013A000A16A00F4FE42B2EB012F40F0CB80E16A6B
:1013B00000F07842B2EBC16F40F0C480226B002392
:1013C000CFF6E07303EA025200F4C001A2F5001266
:1013D000914240F0B780616B4FF07E4202EA0161BA
:1013E00000F0C06001F17E41884240F0AB800020F7
:1013F000F1E100BFB06800F00C01F06808295BD093
:10140000032281F00C0122EA00000844B0FA80F0C7
:10141000400951D16068B0F5803F07D0B0F5A02FEA
:1014200040F0D680306840F480203060306840F46E
:1014300080303060D7E000BFB068F16800F00C0089
:10144000042869D001F0030180F00C0081F0020152
:101450000844B0FA80F040095ED1E16830680029A4
:1014600000F0CE8040F480703060FFF7F5FA05465A
:101470003068400500F1EC80FFF7EEFA401B0228CF
:10148000F6D920E16169D6F89400002900F08C803B
:1014900040F00100C6F89400FFF7DEFA054600BFF1
:1014A000D6F8940080073FF556AFFFF7D5FA401BFA
:1014B0000228F5D907E100BF306880037FF544AF0B
:1014C000606800287FF440AF3CE000BFB06D10F0D2
:1014D000805808D1B06D40F08050B065B06D00F01C
:1014E00080500190019847F20007C4F20007386865
:1014F000C0052BD4386840F480703860FFF7ACFA30
:10150000054600BF3868C00520D4FFF7A5FA401B88
:101510000228F7D9D7E000BF3068400501D5E06860
:1015200080B17068216920F0FE4040EA016070607F
:1015300040F20000C2F200000068FFF7B1FA002894
:101540003FF405AF012002B0BDE8F081A06801289A
:1015500008D0052840F09A80D6F8900040F00400AA
:10156000C6F89000D6F8900040F00100C6F8900050
:101570009AE000BFA169D6F89800002970D040F029
:101580000100C6F89800FFF767FA0546D6F89800FC
:1015900080073FF5E8AEFFF75FFA401B02284FF0E7
:1015A0000300F3D917E100BF20F00100C6F8940052
:1015B000FFF752FA054600BFD6F8940080077FF582
:1015C000CAAEFFF749FA401B0228F5D97BE000BFFD
:1015D0003168002821F480313160316821F48021A4
:1015E000316000F08F80FFF737FA054630688003DE
:1015F0003FF5AAAEFFF730FA401B6428F6D962E047
:1016000020F480703060FFF727FA05463068400507
:101610007FF59DAEFFF720FA401B02284FF0030034
:10162000F4D9D8E03168022821F0807131604FD1BF
:10163000FFF712FA054600BF3068800140F18E8046
:10164000FFF70AFA401B02284FF00300F4D9C2E06A
:101650007068216920F0FE4040EA0160706076E623
:1016600020F00100C6F89800FFF7F6F9054600BF24
:10167000D6F8980080077FF576AEFFF7EDF9401BAE
:1016800002284FF00300F3D9A5E000BFD6F8901070
:10169000002821F00101C6F89010D6F8901021F032
:1016A0000401C6F890103DD0FFF7D6F9054641F287
:1016B000883700BFD6F89000800745D4FFF7CCF9F3
:1016C000401BB842F6D9032002B0BDE8F08100BF4C
:1016D000F0684FF6FF7120F00300F060F068CFF67D
:1016E000EE610840F060FFF7B7F90446306880010A
:1016F0007FF57DAEFFF7B0F9001B02284FF0030025
:10170000F4D968E0FFF7A8F9054600BF3068800308
:101710007FF51AAEFFF7A0F9401B64284FF00300D5
:10172000F4D958E0FFF798F9054641F2883700BF31
:10173000D6F89000800707D5FFF78EF9401BB84216
:101740004FF00300F4D946E0B8F1000F7FF407AE84
:10175000B06D20F08050B06501E600BFF06848F23F
:101760000C01C0F29F1104F1200700EA010C8ECF9A
:101770006FF00F00D4E90C5400EB02100022CFF6FA
:10178000E07241EA0C0102EA05520843A2F5001298
:101790004FF07E4540EA032005EA0465104305F159
:1017A0007E4540EAC7602843F060306840F08070B2
:1017B0003060F06840F08070F060FFF74DF904464B
:1017C000306880013FF513AEFFF746F9001B022891
:1017D0004FF00300F4D902B0BDE8F081002804BF47
:1017E00001207047B0B50446406A28B1002020614E
:1017F00004F1140006E000BF6068B0F5827F03D0FA
:1018000004F11C00002101600025A56294F85D0030
:1018100020B9204684F85C5000F052F8022084F889
:101820005D002068D4F80CE00268BEF5E06F22F09D
:10183000400202604EF4006298BF0125B2F5706F5D
:101840001CBF0023A3624FEA053CD4E90135D4E96B
:10185000042103F4827305F404452B4402F00202D0
:101860001A44A36901F00101E569114403F400720F
:10187000114405F03802256A114405F08002A56A7A
:10188000114405F40052114301600421626A0EF410
:10189000706501EA1341636B45EA0C0502F0100222
:1018A000294303F00803114319434160C16921F43E
:1018B0000061C16100200121206684F85D10B0BD87
:1018C00080B586B0006843F20001C4F2010188428D
:1018D00002D006B080BD00BF41F24C00C4F202004D
:1018E000416941F480514161416901F480510191A4
:1018F0000199016841F001010160006801A900F04F
:10190000010001900198A020019002200290002087
:10191000CDE90300052005904FF09040FEF7BAFF97
:1019200006B080BD2DE9F04381B0044690F85C001C
:10193000012803D1022001B0BDE8F0834FF0010976
:101940001D4616460F4684F85C90FFF785F894F81C
:101950005D10012946D18046002F4FF0010018BFCD
:10196000002E00F0D7800320002184F85D0021665E
:10197000A763A687E6872164A4F84410A4F846105C
:10198000A068E164B0F5004F2068216507D10168C7
:1019900021F040010160016841F48041016001686B
:1019A000490603D4016841F0400101606168731E7B
:1019B000E268B1FA81F1B3FA83F349095B09B2F540
:1019C000E06F41EA03013DD931B137F8021BC16034
:1019D000A763E08F0138E087E08F002870D0681C93
:1019E0000DD11EE0022095E0A16B31F8022BC26000
:1019F000A163E08F0138E087E08F002860D0206885
:101A000081688907F0D4FFF727F8A0EB0800A84207
:101A1000F2D303207EE000BFFFF71EF8E08F00281E
:101A20004ED0206881688907F6D5A16B31F8022B6A
:101A3000C260A163E08F0138E087E08F0028F0D119
:101A40003EE000BF89B1E18F02294FF6FE7103D35A
:101A500037F8022BC26004E03A7801310273A06BC0
:101A6000471CA763E08F0844E087E08F40B3681C01
:101A70005DD04FF6FE70461C08E000BFFEF7ECFF9D
:101A8000A0EB0800A8426DD2E08FC8B12168886839
:101A90008007F3D5E28FA06B022A05D330F8022B22
:101AA000CA604FF6FE7104E000780873A06B3146FF
:101AB0000130A063E08F0844E087E08F0028E5D183
:101AC00020464FF4C0512A46434602F0C1F968B996
:101AD00020462946424602F07FFA38B920464FF4A4
:101AE000C0612A46434602F0B3F928B1206E40F0A7
:101AF0002000206620202066A06838B900200090D1
:101B00002068C1680091806800900098206E0028CD
:101B100018BF0120002184F85D9084F85C1001B0AA
:101B2000BDE8F083FEF798FFE08F0028C8D020685A
:101B300081688907F6D5E28FA16B012A08D931F8AF
:101B4000022BC260A163E08F0238E087ECE700BFA0
:101B500009780173A06B0130A063E08F0138E08742
:101B6000E2E700BF0320D5E7411E0020B0EB116F74
:101B70001CBF012070474EF21002CEF200025160ED
:101B80004EF62351CEF20001F0230B700721906036
:101B900011607047F0B590F83C20012A04BF022084
:101BA000F0BDD1E90232D1E900CE22F47C5223F417
:101BB00070531A4348F2FF73CFF6F07303EA0E0333
:101BC00042EA030E0A692CF477234EEA030C22F44E
:101BD00076224B6942EA0C021A430B6B22F4742CF6
:101BE00023F470238A6943EA0C0343EA0243026840
:101BF00043F2004EC4F2010E42F6004C7245C4F2AC
:101C0000010C01D0624503D1CC6923F080532343FA
:101C1000724501D0624517D101F12006002770CE30
:101C2000CFF6F04723F07C7307EA0656334324F0DF
:101C300000742343724543EA050301D0624503D192
:101C4000C96A23F000530B430021536480F83C1011
:101C50000846F0BD70B590F83C20012A4FF0020212
:101C600047D080F83D20026843F2004C54689368E6
:101C7000C4F2010C42F6004E6245C4F2010E01D0DE
:101C8000724503D14D6824F470042C434FF68F75D0
:101C9000CFF6FF550E682C4042F6FF35C4F2010521
:101CA0003443AA4254600FDCB2F1804F16D040F2A8
:101CB0000046C4F20006B24210D040F60006C4F25C
:101CC0000006B2420AD00EE0724507D044F2000688
:101CD000C4F20106B24201D0624504D1896823F002
:101CE0008003194391600121002280F83D1080F8A3
:101CF0003C20104670BD0000002804BF0120704742
:101D000010B5044690F83D0028B9002084F83C0046
:101D1000204600F023F8022084F83D002068211DB1
:101D200002F0D0F9012084F8480084F83E0084F8DD
:101D30003F0084F8400084F8410084F8420084F8B1
:101D4000430084F8440084F8450084F8460084F891
:101D5000470084F83D00002010BD000083B00068FB
:101D600044F20001C4F20101884217D040F2004160
:101D7000C4F20001884221D0B0F1804F1BD141F262
:101D80005800C4F20200016841F0010101600068DE
:101D900000F001000290029803B0704741F2580031
:101DA000C4F20200816841F480318160806800F4EF
:101DB00080300090009803B0704700BF41F2580097
:101DC000C4F20200016841F002010160006800F005
:101DD00002000190019803B07047000080B590F8B0
:101DE0003C20012A4FF0020200F0A98080F83D203B
:101DF000D0F800C08822DCF80830CFF6CE721A4046
:101E0000CCF808200B686F2B10DD1F22C0F21002E7
:101E1000934237DCB3F5005F46DA702B00F0928016
:101E2000B3F5805F00F08480D6E000BF2F2B35DD56
:101E30004F2B3FDC302B6FD0402B40F0CD80D1F8C2
:101E400004E0C968DCF82030DCF8202022F0010230
:101E5000CCF82020DCF8182022F0F00242EA011130
:101E600023F00A0242EA0E02CCF81810CCF8202027
:101E7000DCF808104FF68872CFF6CF721140473168
:101E800054E000BF3F21C0F210018B423ADC202118
:101E9000C0F210018B423FD0302139E0E3B3102B68
:101EA0003AD0202B38D097E060D0B3F1101F33D058
:101EB00092E000BF502B6DD0602B40F08D80D1F8A8
:101EC00004E0C968DCF8203023F01003CCF820309F
:101ED000DCF81830DCF8202023F4704322F0A00254
:101EE00043EA013142EA0E12CCF81810CCF8202057
:101EF000DCF808104FF68872CFF6CF7211406731C8
:101F000014E000BF4021C0F210018B4204D07021C8
:101F1000C0F210018B425FD1DCF808104FF68872D6
:101F2000CFF6CF721140194341F00701CCF80810E9
:101F30000022012180F83D10002180F83C1010465D
:101F400080BD00BFD1E901E3C968DCF8082043EA9D
:101F50000E0322F47F4243EA01211143CCF808101A
:101F6000DCF8081041F07701E0E700BFD1E901E3B8
:101F7000C968DCF8082043EA0E0322F47F4243EAF2
:101F800001211143CCF80810DCF8081041F480411D
:101F9000CCE700BFD1F804E0C968DCF82030DCF8F9
:101FA000202022F00102CCF82020DCF8182022F0BA
:101FB000F00242EA011123F00A0242EA0E02CCF8D2
:101FC0001810CCF82020DCF808104FF68872CFF6F5
:101FD000CF7211405731A9E70122AAE72DE9F0415C
:101FE00090F83C30012B04BF0220BDE8F0814FEA9D
:101FF000B202052A00F28A81DFE812F006005000E2
:10200000A400F8004C01900103681A6AA3F180460D
:1020100022F001021A621D6A1A465C6852F818CF53
:102020008F68A6F59636D1F800E025F002054FEA54
:10203000B626072E45EA07050AD80127B74017F04C
:10204000E50F1FBFCF6825F00C0527F004073D43BF
:10205000072E0BD8012707FA06F616F0E50F1FBF6B
:1020600024F44074D1E9056734433C434FF68C7641
:10207000CFF6FE760CEA060747EA0E075C609F6122
:102080004F6809695F631D629F6947F008079F6198
:102090009F6927F004079F617DE100BF036843F259
:1020A00000461A6AC4F2010622F010021A621D6A82
:1020B0001A46D3F804C052F8188FB3428E68D1F88C
:1020C00000E025F0200545EA061505D042F6004659
:1020D000C4F20106B34207D1CE686FF0400725F085
:1020E000C00507EA06163543A3F18046A6F59636E5
:1020F0004FEAB626072E0CD8012707FA06F616F087
:10210000E50F1FBFD1E905672CF44064374344EA6B
:10211000870C48F6FF44CFF6FF6404EA080444EA5B
:102120000E27C3F804C09F614F6809699F631D6251
:102130009F6947F400679F619F6927F480679F61EB
:1021400028E100BF036843F200461A6AC4F20106A0
:1021500022F480721A621D6A1A46D3F804C052F83B
:102160001CEFB3428E68D1F8008025F4007545EA73
:10217000062505D042F60046C4F20106B34207D157
:10218000CE6840F2FF47360225F44065BE43354332
:10219000A3F18046A6F596364FEAB626072E0CD850
:1021A000012707FA06F616F0E50F1FBFD1E905670C
:1021B0002CF44054374344EA071C4FF68C74CFF696
:1021C000FE740EEA040747EA0807C3F804C0DF619B
:1021D0004F680969DF631D62DF6947F00807DF6147
:1021E000DF6927F00407DF61D5E000BF036843F231
:1021F00000461A6AC4F2010622F480521A621D6A6D
:102200001A46D3F804C052F81C8FB3428E68D1F836
:1022100000E025F4005545EA063505D042F60046B3
:10222000C4F20106B34207D1CE6844F6FF77360305
:1022300025F44045BE433543A3F18046A6F59636C6
:102240004FEAB626072E0CD8012707FA06F616F035
:10225000E50F1FBFD1E905672CF44044374344EA3A
:10226000871C48F6FF44CFF6FF6404EA080444EAFA
:102270000E27C3F804C0DF614F6809691F641D623F
:10228000DF6947F40067DF61DF6927F48067DF619A
:1022900080E000BF03681A6AA3F1804722F480320D
:1022A0001A621A46A7F59637D3F820805D6852F86F
:1022B00050EFD1F800C08E684FEAB727072F09D832
:1022C0000124BC4014F0E50F1EBF4C6925F4803595
:1022D00045EA042528F4003444EA06444FF68C7697
:1022E000CFF6FE7603360EEA060747EA0C075D6076
:1022F0001F654F6809699F641C621F6D47F00807DE
:102300001F651F6D27F004071F6544E001210022AF
:1023100080F83C200846BDE8F08100BF03681A6AD7
:10232000A3F1804722F480121A621A46A7F5963765
:10233000D3F820805D6852F850EFD1F800C08E6865
:102340004FEAB727072F09D80124BC4014F0E50F46
:102350001EBF4C6925F4802545EA842528F4001425
:1023600044EA065448F6FF46CFF6FF6606F5407687
:102370000EEA060747EA0C275D601F654F6809698A
:10238000DF641C621F6D47F400671F651F6D27F433
:1023900080671F650902136819431160002100223C
:1023A00080F83C200846BDE8F0810000002804BF0A
:1023B0000120704710B5044690F83D0028B9002070
:1023C00084F83C00204600F023F8022084F83D0009
:1023D0002068211D01F076FE012084F8480084F871
:1023E0003E0084F83F0084F8400084F8410084F8FF
:1023F000420084F8430084F8440084F8450084F8DF
:10240000460084F8470084F83D00002010BD00001D
:102410007047000061B10A1F4FEAB202032A11D8C7
:10242000DFE802F00214181C00F13F0318E000BFBF
:1024300090F83E20012A1CBF01207047022280F83C
:102440003E202CE000F143030AE000BF00F140030E
:1024500006E000BF00F1410302E000BF00F14203CB
:102460001B78012B1CBF01207047032A08D8DFE826
:1024700002F0030B0F1300BF022280F83F200EE092
:10248000022280F843200AE0022280F8402006E081
:10249000022280F8412002E0022280F842200268F5
:1024A00001F01F010120136A00FA01F18B4313624E
:1024B000136A0B43A2F18041A1F596314FEAB12195
:1024C0000629136244D8884010F0650F40D0506C44
:1024D00042F6FF31C4F2010140F400408A425064E8
:1024E00010DCB2F1804F1FD040F20040C4F2000077
:1024F000824219D040F60000C4F20000824213D09C
:102500001FE000BF42F60040C4F2010082420BD03F
:1025100044F20000C4F20100824205D043F20040C0
:10252000C4F2010082420CD190680721C0F201017F
:10253000014006294FF0000008D0B1F5803F08BFE8
:102540007047106840F0010010600020704700BF25
:1025500042F6FF30C4F201008242C2DD43F6FF7052
:10256000C4F20100824207DC42F60040C4F20100DE
:102570008242D3D1D8E700BF44F20000C4F2010088
:102580008242D1D044F60000C4F20100824202BF70
:10259000506C40F400405064D3E7000090F8801085
:1025A000012904BF022070472421C0F8841002686A
:1025B0001168136823F00103136021F00053002118
:1025C000416613602022C0F8842080F880100846FD
:1025D00070470000B0B590F88020012A04BF0220A7
:1025E000B0BD2422C0F884200268D0F864E0D2F89C
:1025F00000C01368BEF1000F23F00103136093685D
:1026000023F0606341EA0301916019D093689168F7
:1026100046F2FC1E490FC0F6000E46F204251EF8D5
:102620000140C0F60005695CC3F34263E400B4FBFB
:10263000F1F11EF80340EB5CE500B5FBF3F301E0BC
:1026400001210123A0F86A102021A0F86830C2F807
:1026500000C0C0F88410002180F880100846B0BD8A
:10266000B0B590F88020012A04BF0220B0BD24221A
:10267000C0F884200268D0F864E0D2F800C0136883
:10268000BEF1000F23F001031360936823F0604351
:1026900041EA0301916019D09368916846F2FC1EEB
:1026A000490FC0F6000E46F204251EF80140C0F6A0
:1026B0000005695CC3F34263E400B4FBF1F11EF86A
:1026C0000340EB5CE500B5FBF3F301E001210123DE
:1026D000A0F86A102021A0F86830C2F800C0C0F845
:1026E0008410002180F880100846B0BDB0B582B0DB
:1026F000B0B10446D0F8840028B9002084F88000E6
:10270000204600F059F82420C4F8840020680168AD
:1027100021F001010160204601F0CEFD012803D126
:10272000012002B0B0BD00BFA06A10B1204601F088
:102730004FFD2068416821F490414160816821F09B
:102740002A018160016841F0010101600020C4F8A4
:102750008C00FEF781F9216805460A6812070CD53E
:102760006FF07E4C20464FF4001100222B46CDF82E
:1027700000C001F0F3FE78B92168086840070FD562
:102780006FF07E4C20464FF4800100222B46CDF89E
:1027900000C001F0E3FE18B1032002B0B0BD00BFDD
:1027A0002020C4F88400C4F888000020E06684F883
:1027B000800002B0B0BD000010B596B00446684677
:1027C00008303C21FDF75CFD206843F60001C4F2AF
:1027D0000101884202D016B010BD00BF0120009058
:1027E000002468460194FEF775FA002818BFFEF72A
:1027F00037F841F24C00C4F20200416941F48041D3
:102800004161416901F4804111911199016841F0E0
:1028100001010160006811A900F0010011901198F8
:102820004FF4C06011900220CDE9120407201590EA
:102830004FF090401494FEF72DF816B010BD000034
:10284000FEE700002DE9F04184B005462A20174636
:102850000E468DF803004FF090404021002298462C
:10286000FEF7F4F840F2C804C2F200040DF10301CF
:10287000204601221023FFF755F8681C00BA000C0F
:10288000ADF804004FF0904040210122FEF7DEF841
:1028900001A9204602221023FFF744F8781C00BA51
:1028A000000CADF806004FF0904040210122FEF7E9
:1028B000CDF80DF10601204602221023FFF732F871
:1028C0002B208DF809004FF0904040210022FEF7A8
:1028D000BDF80DF10901204601221023FFF722F86F
:1028E00006F11A0000BA000CADF80A004FF0904053
:1028F00040210122FEF7AAF80DF10A01204602222A
:102900001023FFF70FF808F11A0000BA000CADF819
:102910000C004FF0904040210122FEF797F803A9E8
:10292000204602221023FEF7FDFF2C208DF80F0019
:102930004FF0904040210022FEF788F80DF10F0182
:10294000204601221023FEF7EDFF04B0BDE8F08120
:1029500070B50446002000219F224F230025FFF779
:1029600071FF40F2B02160BAC2F200014A19485327
:102970005035B5F5A07F50809080D0801081508177
:102980009081D081108250829082D08210835083B7
:102990009083D083108450849084D0841085508597
:1029A0009085D085108650869086D0861087508777
:1029B0009087D087A2F84000A2F84200A2F8440015
:1029C000A2F84600A2F84800A2F84A00A2F84C007B
:1029D000A2F84E00CAD14FF0904040210122FEF7EC
:1029E00035F840F2C80440F2B0255026C2F2000487
:1029F000C2F20005204629464FF4A0724FF48073BE
:102A0000FEF790FF013EF5D170BD00002DE9F04FBB
:102A100081B040F60000C4F600001021002200271B
:102A2000FEF714F84FF090404FF400410022FEF7FB
:102A30000DF86420FDF71AFF4FF090404FF400416D
:102A40000122FEF703F86420FDF710FF4FF09040DD
:102A50004FF480710022FDF7F9FF6420FDF706FFB7
:102A600011208DF803004FF0904040210022FDF727
:102A7000EDFF40F2C804C2F200040DF1030120464C
:102A800001221023FEF74EFF7820FDF7EFFEB12064
:102A90008DF803004FF0904040210022FDF7D6FF53
:102AA0000DF10301204601221023FEF73BFF052014
:102AB0008DF803004FF09040402101220526FDF7DC
:102AC000C5FF0DF10301204601221023FEF72AFF66
:102AD0003C254FF09040402101228DF80350FDF736
:102AE000B5FF0DF10301204601221023FEF71AFF66
:102AF0004FF09040402101228DF80350FDF7A6FFD2
:102B00000DF10301204601221023FEF70BFFB22036
:102B10008DF803004FF0904040210022FDF796FF12
:102B20000DF10301204601221023FEF7FBFE4FF0BA
:102B30009040402101228DF803600526FDF786FFB5
:102B40000DF10301204601221023FEF7EBFE4FF0AA
:102B50009040402101228DF80350FDF777FF0DF1E1
:102B60000301204601221023FEF7DCFE4FF09040C7
:102B7000402101228DF80350FDF768FF0DF103019C
:102B8000204601221023FEF7CDFEB3208DF803006E
:102B90004FF0904040210022FDF758FF0DF1030156
:102BA000204601221023FEF7BDFE4FF09040402149
:102BB00001228DF803600526FDF748FF0DF10301A2
:102BC000204601221023FEF7ADFE4FF09040402139
:102BD00001228DF80350FDF739FF0DF10301204666
:102BE00001221023FEF79EFE4FF09040402101226B
:102BF0008DF80350FDF72AFF0DF103012046012255
:102C00001023FEF78FFE4FF09040402101228DF8F7
:102C10000360FDF71BFF0DF1030120460122102385
:102C2000FEF780FE4FF09040402101228DF80350C6
:102C3000FDF70CFF0DF10301204601221023FEF7E2
:102C400071FE4FF09040402101228DF80350FDF7B6
:102C5000FDFE0DF10301204601221023FEF762FE66
:102C6000B4208DF803004FF0904040210022FDF782
:102C7000EDFE0DF10301204601221023FEF752FE66
:102C800003208DF803004FF0904040210122FDF712
:102C9000DDFE0DF10301204601221023FEF742FE66
:102CA000C0208DF803004FF0904040210022FDF736
:102CB000CDFE0DF10301204601221023FEF732FE66
:102CC000AB208DF803004FF0904040210122FDF72A
:102CD000BDFE0DF10301204601221023FEF722FE66
:102CE0000B208DF803004FF0904040210122FDF7AA
:102CF000ADFE0DF10301204601221023FEF712FE66
:102D000004208DF803004FF0904040210122FDF790
:102D10009DFE0DF10301204601221023FEF702FE65
:102D2000C1208DF803004FF0904040210022FDF7B4
:102D30008DFE0DF10301204601221023FEF7F2FD66
:102D4000C5254FF09040402101228DF80350FDF73A
:102D50007DFE0DF10301204601221023FEF7E2FD66
:102D6000C2208DF803004FF0904040210022FDF773
:102D70006DFE0DF10301204601221023FEF7D2FD66
:102D80000D208DF803004FF0904040210122FDF707
:102D90005DFE0DF10301204601221023FEF7C2FD66
:102DA0004FF09040402101228DF80370FDF74EFE58
:102DB0000DF10301204601221023FEF7B3FDC320CD
:102DC0008DF803004FF0904040210022FDF73EFEB9
:102DD0000DF10301204601221023FEF7A3FD8D26ED
:102DE0004FF09040402101228DF80360FDF72EFE48
:102DF0000DF10301204601221023FEF793FD6A2006
:102E00008DF803004FF0904040210122FDF71EFE97
:102E10000DF10301204601221023FEF783FDC4209B
:102E20008DF803004FF0904040210022FDF70EFE88
:102E30000DF10301204601221023FEF773FD4FF030
:102E40009040402101228DF80360FDF7FFFD0DF158
:102E50000301204601221023FEF764FDEE208DF8C9
:102E600003004FF0904040210122FDF7EFFD0DF1EE
:102E70000301204601221023FEF754FD4FF090403D
:102E8000402100228DF80350FDF7E0FD0DF1030114
:102E9000204601221023FEF745FD0F274FF09040FA
:102EA000402101228DF80370FDF7D0FD0DF10301E3
:102EB000204601221023FEF735FDE0208DF80300A7
:102EC0004FF0904040210022FDF7C0FD0DF10301BD
:102ED000204601221023FEF725FD4FF007094FF091
:102EE0009040402101228DF80390FDF7AFFD0DF1D8
:102EF0000301204601221023FEF714FD0E208DF859
:102F000003004FF0904040210122FDF79FFD0DF19D
:102F10000301204601221023FEF704FD4FF0080BA9
:102F20004FF09040402101228DF803B0FDF78EFD57
:102F30000DF10301204601221023FEF7F3FC4FF0B0
:102F40009040402101228DF80390FDF77FFD0DF1A7
:102F50000301204601221023FEF7E4FC4FF0100885
:102F60004FF09040402101228DF80380FDF76EFD67
:102F70000DF10301204601221023FEF7D3FC4FF090
:102F80009040402101228DF80390FDF75FFD0DF187
:102F90000301204601221023FEF7C4FC02208DF815
:102FA00003004FF0904040210122FDF74FFD0DF14D
:102FB0000301204601221023FEF7B4FC4FF090409D
:102FC000402101228DF80390FDF740FD0DF1030132
:102FD000204601221023FEF7A5FC4FF0090A4FF00E
:102FE0009040402101228DF803A0FDF72FFD0DF147
:102FF0000301204601221023FEF794FC4FF090407D
:10300000402101228DF80370FDF720FD0DF1030131
:10301000204601221023FEF785FC25208DF80300B1
:103020004FF0904040210122FDF710FD0DF103010A
:10303000204601221023FEF775FC36208DF8030090
:103040004FF0904040210122FDF700FD0DF10301FA
:10305000204601221023FEF765FC00264FF0904029
:10306000402101228DF80360FDF7F0FC0DF1030112
:10307000204601221023FEF755FC4FF090404021DE
:1030800001228DF803B0FDF7E1FC0DF103012046AC
:1030900001221023FEF746FC04254FF0904040210A
:1030A00001228DF80350FDF7D1FC0DF103012046FC
:1030B00001221023FEF736FC4FF090404021012200
:1030C0008DF803804FF01008FDF7C0FC0DF10301EF
:1030D000204601221023FEF725FCE1208DF8030095
:1030E0004FF0904040210022FDF7B0FC0DF10301AC
:1030F000204601221023FEF715FC0A208DF803005C
:103100004FF0904040210122FDF7A0FC0DF103019A
:10311000204601221023FEF705FC0D208DF8030048
:103120004FF0904040210122FDF790FC0DF103018A
:10313000204601221023FEF7F5FB4FF0904040217E
:1031400001228DF803B0FDF781FC0DF1030120464B
:1031500001221023FEF7E6FB4FF0904040210122B0
:103160008DF80390FDF772FC0DF10301204601225A
:103170001023FEF7D7FB4FF09040402101228DF83D
:103180000370FDF763FC0DF10301204601221023BB
:10319000FEF7C8FB4FF09040402101228DF80390CC
:1031A000FDF754FC0DF10301204601221023FEF728
:1031B000B9FB02208DF803004FF09040402101221E
:1031C000FDF744FC0DF10301204601221023FEF718
:1031D000A9FB4FF09040402101228DF80390FDF7AC
:1031E00035FC0DF10301204601221023FEF79AFB66
:1031F0004FF09040402101228DF803A0FDF726FCFE
:103200000DF10301204601221023FEF78BFB4FF046
:103210009040402101228DF80370FDF717FC0DF15D
:103220000301204601221023FEF77CFB25208DF8A8
:1032300003004FF0904040210122FDF707FC0DF103
:103240000301204601221023FEF76CFB35208DF888
:1032500003004FF0904040210122FDF7F7FB0DF1F4
:103260000301204601221023FEF75CFB4FF0904043
:10327000402101228DF80360FDF7E8FB0DF1030109
:10328000204601221023FEF74DFB4FF090404021D5
:1032900001228DF803A0FDF7D9FB0DF103012046B3
:1032A00001221023FEF73EFB4FF090404021012207
:1032B0008DF80350FDF7CAFB0DF1030120460122F2
:1032C0001023FEF72FFB4FF09040402101228DF894
:1032D0000380FDF7BBFB0DF1030120460122102303
:1032E000FEF720FBFC208DF803004FF090404021BA
:1032F0000022FDF7ABFB0DF1030120460122102354
:10330000FEF710FB80208DF803004FF09040402125
:103310000122FDF79BFB0DF1030120460122102342
:10332000FEF700FB3A208DF803004FF0904040215B
:103330000022FDF78BFB0DF1030120460122102333
:10334000FEF7F0FA05208DF803004FF09040402181
:103350000122FDF77BFB0DF1030120460122102322
:10336000FEF7E0FA36208DF803004FF09040402140
:103370000022FDF76BFB0DF1030120460122102313
:10338000FEF7D0FAA8208DF803004FF090404021BE
:103390000122FDF75BFB0DF1030120460122102302
:1033A000FEF7C0FA21208DF803004FF09040402135
:1033B0000022FDF74BFB0DF10301204601221023F3
:1033C000FEF7B0FA29208DF803004FF0904040211D
:1033D0000022FDF73BFB0DF10301204601221023E3
:1033E000FEF7A0FA2A208DF803004FF0904040210C
:1033F0000022FDF72BFB0DF10301204601221023D3
:10340000FEF790FA00254FF09040402101228DF800
:103410000350FDF71BFB0DF1030120460122102391
:10342000FEF780FA1A208DF803004FF090404021FB
:103430000122FDF70BFB0DF10301204601221023B1
:10344000FEF770FA4FF09040402101228DF80350B2
:103450000025FDF7FBFA0DF10301204601221023A0
:10346000FEF760FA69208DF803004FF0904040218C
:103470000122FDF7EBFA0DF1030120460122102392
:10348000FEF750FA2B208DF803004FF090404021BA
:103490000022FDF7DBFA0DF1030120460122102383
:1034A000FEF740FA4FF09040402101228DF8035082
:1034B000FDF7CCFA0DF10301204601221023FEF79F
:1034C00031FA01208DF803004FF090404021012295
:1034D000FDF7BCFA0DF10301204601221023FEF78F
:1034E00021FA4FF09040402101228DF80350FDF762
:1034F000ADFA0DF10301204601221023FEF712FA66
:10350000A0208DF803004FF0904040210122FDF7EC
:103510009DFA0DF10301204601221023FEF702FA65
:103520002C208DF803004FF0904040210022FDF741
:103530008DFA0DF10301204601221023FEF7F2F966
:10354000002000219F224F23FFF77CF940F2B02595
:10355000C2F2000528464FF4A071FCF791FE4FF02F
:10356000904040210122FDF771FA5026204629465D
:103570004FF4A0724FF48073FEF7D4F9013EF5D1F9
:1035800001B0BDE8F08F00002DE9F04F87B098281A
:1035900000F2C0800E46402900F2BC80044607308D
:1035A00006F10F011D46A2F1200782B28BB2204620
:1035B0003146FFF747F9B8B2000195FA95FA40F2A3
:1035C000C805019006F11A000021C2F20005009022
:1035D00005E000BF02990131102900F09B8001989D
:1035E00045F6FC320844C0F60002165C00984FF025
:1035F0000008084400BA070C029185E02A208DF8E3
:103600000F004FF0904040210022FDF71FFA28469E
:103610000DF10F0101221023FEF784F908F10109D1
:1036200009EB040000BA4FEA104B4FF090404021E4
:103630000122ADF810B0FDF709FA284604A90222CC
:103640001023FEF76FF94FF0904040210122ADF8B2
:1036500012B0FDF7FBF928460DF1120102221023EA
:10366000FEF760F92B208DF815004FF090404021B7
:103670000022FDF7EBF928460DF115010122102378
:10368000FEF750F94FF0904040210122ADF816703E
:10369000FDF7DCF928460DF1160102221023FEF792
:1036A00041F94FF0904040210122ADF81870FDF72C
:1036B000CDF9284606A902221023FEF733F92C2063
:1036C0008DF81B004FF0904040210022FDF7BEF91D
:1036D00028460DF11B0101221023FEF723F94FF0BC
:1036E000904040210122ADF80CA0FDF7AFF928462B
:1036F00003A902221023FEF715F91FFA88F07608B5
:103700000728C846BFF466AFF0077FF477AF08F12B
:103710000109F2E707B0BDE8F08F00002DE9F0479E
:1037200091461278002A08BFBDE8F08740F2B02623
:1037300040F2C80798468A460546C2F200064FF096
:10374000F814C2F200070BE0A8B21FFA8AF1D2B255
:103750004346FFF719FF19F8012F0835002A41D019
:10376000A8B2982888BF0AF1100A1FFA8AF088BF09
:1037700000254128E8D3002000219F224F23002567
:10378000FFF760F8701974515035B5F5A07F4460AB
:103790008460C460046144618461C4610462446201
:1037A0008462C462046344638463C46304644464E1
:1037B0008464C464E6D14FF0904040210122FDF7BB
:1037C00045F95025384631464FF4A0724FF48073C6
:1037D000FEF7A8F8013DF5D199F800204FF0000A56
:1037E0000025B1E7BDE8F087F0B581B040F24807A9
:1037F000C2F2000714460D46064606AA3846194688
:10380000009201F063FD304629463A462346FFF711
:1038100085FF01B0F0BD00002DE9F04786B000271C
:1038200041F24C000597C4F202000168002241F009
:1038300020010160016848F2401401F0200100916C
:103840000099016841F001010160016801F0010186
:1038500000910099016841F004010160016801F0E4
:10386000040100910099016841F0020101600068C3
:1038700048F2401100F00200009000984FF0904094
:10388000FDF7E4F840F20049C4F6000909F5806646
:103890003046102100224FF0100AFDF7D7F84846B5
:1038A0004FF4704100224FF47048FDF7CFF801AD9E
:1038B000019401244FF090402946CDE90247049736
:1038C000FCF7E8FF30462946CDE901A4CDE90377AE
:1038D000FCF7E0FF0F20CDE90107022003904846E6
:1038E0002946FCF7D7FF4FF44E60CDE90107484663
:1038F00029460394FCF7CEFF48462946CDE90184CA
:10390000CDE90347FCF7C6FF06B0BDE8F08700002D
:1039100070B540F2C80043F20001C2F20000C4F2E8
:1039200001014FF482724FF400434FF4E06C4FF00A
:10393000020E012480E80E5000F114014FF40075CE
:10394000102670C100210722C0E90811C0E90A123F
:10395000C0E90C11FDF742FF002808BF70BDBDE8AB
:103960007040FCF77DBF000070B5A2B0002401A834
:1039700034211B94CDE91944CDE91644CDE9144412
:10398000CDE91244CDE91044CDE90E44FCF778FCB2
:1039900040F22C1044F20005C2F20000C4F201050E
:1039A00044F26821C0E90054C0E90241C0E904447E
:1039B0008461FEF7A1F9002818BFFCF751FF4FF40E
:1039C0008050189040F22C10C2F2000018A9FEF7A7
:1039D00005FA002818BFFCF743FF40F22C10C2F292
:1039E0000000FEF7E3FC002818BFFCF739FF40F2A7
:1039F0002C100024C2F2000015A915941794FEF7AC
:103A000029F9002818BFFCF72BFF60200E9042F226
:103A10003410CDE90F0440F22C10C2F200000EA9C0
:103A20000022CDE91144CDE91344FEF7D7FA00286E
:103A300018BFFCF715FF40F22C1400264FF400507D
:103A4000C2F20004CDE9060601A920460596CDE99B
:103A50000366CDE901660D96FEF79CF8002818BFB5
:103A6000FCF7FEFE20681D96A84219D040F20041E6
:103A7000C4F20001884225D0B0F1804F3DD141F21F
:103A80004C00C4F20200016841F0010101600068CD
:103A900000F001001C901C9802201D90012021E0E4
:103AA00041F24C00C4F20200016841F001010160E2
:103AB000006800F001001C901C9804201D90092053
:103AC00010E000BF41F24C00C4F20200016841F076
:103AD00001010160006800F001001C901C9810209A
:103AE0001D90022002211E910021CDE91F1121907D
:103AF0001DA94FF09040FCF7CDFE22B070BD000034
:103B000010B594B040F278100021C2F200004FF0DE
:103B10008042AA230D91CDE90B11CDE90811CDE921
:103B20000611CDE90411CDE90211CDE90011C0E97A
:103B30000021C0E9021301618161FEF7DDF8002870
:103B400018BFFCF78DFE4FF480500A9040F27810B9
:103B5000C2F200000AA9FEF741F9002818BFFCF7DD
:103B60007FFE40F27810C2F20000FEF71FFC002832
:103B700018BFFCF775FE40F278100024C2F2000076
:103B800007A907940994FEF765F8002818BFFCF709
:103B900067FE602000905520CDE90104049440F2B6
:103BA0007814C2F20004694620460422FEF716FA91
:103BB000002818BFFCF754FE206844F20002C4F24B
:103BC0000102002190420F911AD040F20041C4F24C
:103BD0000001884226D0B0F1804F3ED141F24C0026
:103BE000C4F20200016841F001010160006800F0C8
:103BF00001000E900E9802200F90012022E000BFDD
:103C000041F24C00C4F20200016841F00101016080
:103C1000006800F001000E900E9804200F9009201B
:103C200010E000BF41F24C00C4F20200016841F014
:103C300001010160006800F001000E900E98102054
:103C40000F900220022110910021CDE91111139053
:103C50000FA94FF09040FCF71DFE14B010BD0000FE
:103C6000B0B594B040F2C41040F200450021C2F259
:103C70000000C4F2000540F2A4620D91CDE90B11E1
:103C8000CDE90811CDE90611CDE90411CDE9021104
:103C9000CDE90011C0E90051C0E902120161816162
:103CA000FEF72AF8002818BFFCF7DAFD4FF4805021
:103CB0000A9040F2C410C2F200000AA9FEF78EF882
:103CC000002818BFFCF7CCFD40F2C410C2F200007F
:103CD000FEF76CFB002818BFFCF7C2FD40F2C410D1
:103CE0000024C2F2000007A907940994FDF7B2FF6F
:103CF000002818BFFCF7B4FD6020009040F252305D
:103D0000CDE90104049440F2C414C2F200046946EF
:103D100020460422FEF762F9002818BFFCF7A0FD38
:103D2000206844F20002C4F20102002190420F9187
:103D300016D0A84226D0B0F1804F3ED141F24C00BF
:103D4000C4F20200016841F001010160006800F066
:103D500001000E900E9802200F90012022E000BF7B
:103D600041F24C00C4F20200016841F0010101601F
:103D7000006800F001000E900E9804200F900920BA
:103D800010E000BF41F24C00C4F20200016841F0B3
:103D900001010160006800F001000E900E981020F3
:103DA0000F900220022110910021CDE911111390F2
:103DB0000FA94FF09040FCF76DFD14B0B0BD0000AE
:103DC00080B540F2102043F60001C2F20000C4F2B8
:103DD000010100234FF00C0C4FF4E13280E80E009B
:103DE000C0E90333C0E905C3C0E90733C0E90933BB
:103DF000FEF77CFC002818BFFCF732FD40F21020D3
:103E0000C2F200000021FEF72BFC002818BFFCF7CF
:103E100027FD40F21020C2F200000021FEF7DAFB7D
:103E2000002818BFFCF71CFD40F21020C2F2000071
:103E3000FEF7B4FB002808BF80BDBDE88040FCF75A
:103E40000FBD0000FEE70000FEE700007047000025
:103E50002DE9F04782B000261F4690460D46814668
:103E60008DF80360FCF7F8FD381A00EB0807FCF743
:103E7000F3FD40F20801C2F2000109682322514318
:103E8000090DD9F8004079430191A168294271D008
:103E9000824618F1010037D0B5F5C06F1CD100BFC4
:103EA000207B8DF803009DF80300FCF7D5FDA0EB07
:103EB0000A00B84262D2019801990028A1F10101DB
:103EC0000191D9F80010896808BF074611F4C06F46
:103ED000E6D100264EE000BFFCF7BEFDA0EB0A00D5
:103EE000B8424BD2019801990028A1F1010101913A
:103EF000D9F80010896808BF07462942ECD100268E
:103F0000304602B0BDE8F0870026B5F5C06F25D178
:103F1000207B8DF803009DF80300A06810F4C06FAB
:103F2000EDD0207B8DF803009DF80300A06810F40D
:103F3000C06FE4D0207B8DF803009DF80300A068DB
:103F400010F4C06FDBD0207B8DF803009DF80300D8
:103F5000A06810F4C06FDBD10CE000BFA06828425D
:103F6000CDD0A0682842CAD0A0682842C7D0A06897
:103F70002842F3D1304602B0BDE8F087D9E900010C
:103F80004268B1F5827F22F0E00242600BD1D9F89D
:103F90000810B1F5004F02D0B1F5806F03D1016870
:103FA00021F040010160D9F82810B1F5005F07D178
:103FB000016821F400510160016841F40051016081
:103FC000012089F85D00002089F85C000326304656
:103FD00002B0BDE8F0870000F0B581B015460E468E
:103FE0000446FCF739FD281A8719FCF735FD40F225
:103FF0000801C2F200010968C1F3CB317943009195
:1040000021688A68120622D50546701C15D000BFAB
:10401000FCF722FD401BB8421CD2009800990028F2
:10402000A1F1010100912168896808BF07460806CF
:10403000EED40CE08868000609D58868000606D52D
:104040008868000644BF88685FEA0060F2D40020F8
:1040500001B0F0BDD4E900014268B1F5827F22F0E1
:10406000E00242600AD1A168B1F5004F02D0B1F57B
:10407000806F03D1016821F040010160A16AB1F5B0
:10408000005F07D1016821F400510160016841F42B
:1040900000510160012084F85D00002084F85C007C
:1040A000032001B0F0BD000070470000FCF7DABC4F
:1040B0004EF68850CEF20000016841F470010160B4
:1040C0007047000080B540F2FF7C0268C4F2000C2B
:1040D000604521DD40F60003C4F20003984224D07D
:1040E00043F20043C4F2010398421ED042F600435B
:1040F000C4F20103984218D043F2FF33C4F2010323
:1041000098421CDC604529DCB0F1804F3CD040F285
:104110000043C4F2000335E0B0F1804F05D040F217
:104120000043C4F200039842E6D14B6822F07002CB
:104130001A4343F2FF33C4F201039842E2DD44F232
:10414000FF33C4F20103984212DC43F20043C4F28D
:104150000103984218D044F2000311E040F6000336
:10416000C4F2000398420FD042F6004308E000BFBB
:1041700044F60003C4F20103984205D044F2004320
:10418000C4F20103984203D1CB6822F440721A436F
:104190004B6922F0800E8A6843EA0E03D1F800C012
:1041A0000360C262A0F18042A2F596324FEAB222C9
:1041B000072AC0F828C007D8012303FA02F212F038
:1041C000E50F1CBF096901630121416180BD000049
:1041D00080B5816ACA070DD18A0716D44A071FD451
:1041E0000A0728D4CA0631D48A063AD44A0658D5D2
:1041F00042E000BF0268D0F82CC0536823F40033BB
:1042000043EA0C0353608A07E8D50268D0F830C04F
:10421000536823F4803343EA0C0353604A07DFD525
:104220000268D0F834C0536823F4802343EA0C03B7
:1042300053600A07D6D50268D0F838C0536823F413
:10424000004343EA0C035360CA06CDD50268D0F898
:104250003CC0936823F4805343EA0C0393608A06BE
:10426000C4D50268D0F840C0936823F4005343EAF1
:104270000C0393604A0614D50268D0F844C0536812
:10428000BCF5801F23F4801343EA0C03536008D16C
:10429000D2F804C0D0F848E02CF4C00343EA0E037F
:1042A0005360090658BF80BD0168C06C4A6822F49B
:1042B00000221043486080BD70B5054605F1080432
:1042C0001ECC0068194341EA0403EE69046846F60F
:1042D000F311CCF6FF71214019433143016041686D
:1042E00048F2000C21F4405111434160AA69C4F224
:1042F000000C60451CBF296A0A4381684FF2FF43E6
:10430000C1F2FF13194011438160C16AD5F824E05E
:1043100021F00F0141EA0E01C16244F6FF31C4F2FF
:10432000000188424FF0100314DD44F60041C4F24E
:104330000001884222D0604528D043F60001C4F233
:104340000101884238D141F28801C4F202010B68B0
:104350007EA22DE044F20041C4F2000188421DD04B
:1043600044F60001C4F20001884225D141F28801DF
:10437000C4F2020109680B0916E000BF41F288018E
:10438000C4F2020109688B090EE000BF41F2880106
:10439000C4F2020109688B0A06E000BF41F28801FD
:1043A000C4F2020109688B0846F2EC12C0F6000262
:1043B00003F0030152F82130604542F20040C0F2A0
:1043C000F40015D0B6F5004F24D1082B4FF00101B1
:1043D00000F2B380DFE803F0065E6CB164B1B1B106
:1043E0006A0000BFFCF736FF002856D15CE000BF32
:1043F000082B4FF0010100F2A080DFE803F0059EDA
:10440000259E1D9E9E9E2300FCF724FFC0B1D5F87B
:1044100024E019E0082B4FF0010100F28E80DFE864
:1044200003F00565738C6B8C8C8C7100FCF712FFAC
:1044300000285ED164E000BFFCF738FF0028E6D119
:1044400000217AE04FF4004045F6E431C0F6000167
:1044500031F81E106A68B0FBF1F002EB42018842AD
:104460004FF0010169D31303984266D8010E000290
:1044700010EB520041F100010023FBF7C9FE4FF69B
:104480000052A0F54071C0F20F0291424FD30121BA
:1044900053E000BFFCF7F4FE30B1D5F824E007E0AC
:1044A000FCF704FF0028F8D1002146E04FF400405B
:1044B00045F6E431C0F6000131F81E106A68B0FB21
:1044C000F1F0510801EB4000B0FBF2F04FF6EF7253
:1044D000A0F11001914207D84FF6F0710140C0F3EE
:1044E0004200084423E000BF012126E0FCF7C8FE9B
:1044F00030B1D5F824E007E0FCF7D8FE0028F8D169
:1045000000211AE04FF4004045F6E431C0F6000106
:1045100031F81E104FF6EF72B0FBF1F0696800EB56
:104520005100B0FBF1F0A0F11001914204D82968CC
:10453000C860002101E000BF01214FF00110A86612
:10454000002208462A676A6770BD00BF01000000AC
:104550000400000002000000080000002DE9F04106
:10456000044600681546C2690E461140891BB1FA1F
:1045700081F14909A94240F0A080DDF81880B8F126
:10458000000F29D018F1010140F08080C16931404D
:10459000891BB1FA81F14909A94240F08E80C169B5
:1045A0003140891BB1FA81F14909A94240F0858067
:1045B000C1693140891BB1FA81F14909A9427CD115
:1045C000C1693140891BB1FA81F14909A942DDD0A5
:1045D0000020BDE8F08100BFFCF73EFA206850E8FB
:1045E000000F216820F4D07041E80002BAB32068BF
:1045F00050E8000F216820F4D07041E8000272B347
:10460000206850E8000F216820F4D07041E80002D3
:104610002AB3206850E8000F216820F4D07041E8E8
:104620000002002ADAD11AE0206850E8020F21685F
:1046300020F0010041E80202DAB1206850E8020FE0
:10464000216820F0010041E8020292B1206850E8A0
:10465000020F216820F0010041E802024AB12068FF
:1046600050E8020F216820F0010041E80202002A10
:10467000DAD12020C4F8840004F1880020210160F0
:10468000002084F880000320BDE8F0811F4600BFB1
:10469000FCF7E2F9C01B4045A0D820680168490733
:1046A00044BFC1695FEA01510AD4C0693040801B30
:1046B000B0FA80F04009A842EAD00020BDE8F081BD
:1046C0004FF40061016200BF206850E8000F2168CC
:1046D00020F4D07041E80002BAB3206850E8000F1F
:1046E000216820F4D07041E8000272B3206850E8DD
:1046F000000F216820F4D07041E800022AB320683E
:1047000050E8000F216820F4D07041E80002002A30
:10471000DAD11AE0206850E8020F216820F0010089
:1047200041E80202DAB1206850E8020F216820F067
:10473000010041E8020292B1206850E8020F2168AE
:1047400020F0010041E802024AB1206850E8020F5F
:10475000216820F0010041E80202002ADAD120207D
:10476000C4F88400C4F8880004F18C0086E70000D7
:10477000FEE7000080B540F2A020C2F20000C17B3D
:1047800040F2180C40F21C0E0129C2F2000CC2F2D9
:10479000000E3DD0C27A012A49D0C179012956D0F4
:1047A000C178012963D0817B012972D0817A0129E6
:1047B00000F080808179012900F08D8081780129C5
:1047C00000F09A80417B012900F0A080417A012904
:1047D00000F0AD804179012900F0BA8041780129CB
:1047E00000F0C780017B012900F0D280017A012905
:1047F00000F0DB800179012900F0E48001780129D3
:1048000000F0EF804FF49670BDE88040FCF72EB8C2
:104810009CF800305EF8232002EB82025200013245
:104820004EF823200022C273C27A012AB5D19CF827
:10483000002002215EF8223003EB830301EB4301E9
:104840004EF822100021C172C1790129A8D19CF82B
:10485000001003235EF8212002EB820203EB4202E8
:104860004EF821200021C171C17801299BD19CF80B
:1048700000104CF6CD435EF82120CCF6CC43A2FBD1
:104880000323DA084EF821200021C170817B012921
:104890008CD19CF8001004235EF8212002EB8202E8
:1048A00003EB42024EF8212000218173817A012915
:1048B0007FF480AF9CF8001005235EF8212002EB06
:1048C000820203EB42024EF821200021817281799D
:1048D00001297FF473AF9CF8001006235EF82120B5
:1048E00002EB820203EB42024EF82120002181718B
:1048F000817801297FF466AF9CF8001000224EF801
:1049000021208270417B01297FF460AF9CF8001068
:1049100007235EF8212002EB820203EB42024EF8ED
:10492000212000214173417A01297FF453AF9CF883
:10493000001008235EF8212002EB820203EB420202
:104940004EF8212000214172417901297FF446AFC0
:104950009CF8001009235EF8212002EB820203EB91
:1049600042024EF8212000214171417801297FF453
:1049700039AF9CF800105EF8212002EB8202520051
:104980004EF8212000214170017B01297FF42EAFD8
:104990009CF800105EF8212001324EF82120002101
:1049A0000173017A01297FF425AF9CF800105EF8AD
:1049B0002120013A4EF821200021017201790129BC
:1049C0007FF41CAF9CF800104FF47A735EF821203E
:1049D0005A434EF8212000210171017801297FF40A
:1049E00011AF9CF8001044F240235EF82120C0F281
:1049F0000F035A434EF82120002101704FF49670A6
:104A0000BDE88040FBF732BF70B540F20044C4F609
:104A1000000420464FF4805101220126FCF716F8CD
:104A20000220FBF723FF20460121FCF709F80028AC
:104A300040F2A02520464FF00201C2F2000518BF47
:104A40002E70FBF7FDFF00281CBF012028712046B7
:104A50000421FBF7F5FF00281CBF01202872204627
:104A60000821FBF7EDFF00281CBF0120287320461A
:104A70004FF480510022FBF7E9FF20464FF400512C
:104A800001220126FBF7E2FF0220FBF7EFFE2046A2
:104A90000121FBF7D5FF002820464FF0020118BF87
:104AA0006E70FBF7CDFF00281CBF01206871204607
:104AB0000421FBF7C5FF00281CBF012068722046B7
:104AC0000821FBF7BDFF00281CBF012068732046AA
:104AD0004FF400510022FBF7B9FF20464FF480410C
:104AE00001220126FBF7B2FF0220FBF7BFFE2046A2
:104AF0000121FBF7A5FF002820464FF0020118BF57
:104B0000AE70FBF79DFF00281CBF0120A871204656
:104B10000421FBF795FF00281CBF0120A872204646
:104B20000821FBF78DFF00281CBF0120A873204639
:104B30004FF480410022FBF789FF20464FF40041EB
:104B400001220126FBF782FF0220FBF78FFE2046A1
:104B50000121FBF775FF002820464FF0020118BF26
:104B6000EE70FBF76DFF00281CBF0120E8712046A6
:104B70000421FBF765FF00281CBF0120E8722046D6
:104B80000821FBF75DFF00281CBF0120E8732046C9
:104B90004FF400410022FBF759FF0220BDE87040AE
:104BA000FBF764BE94B0FBF76BFF002400200C946D
:104BB000CDE90A44CDE90844FBF7EEFF0120069059
:104BC0004FF480300790022055210D900325CDE948
:104BD0001010CDE9120006A8CDE90E55FCF7A6FB92
:104BE00020B1EFF3108072B6FEE700BF0F20CDE9D1
:104BF000010501A80421CDE903440594FCF7A0F9BF
:104C000020B1EFF3108072B6FEE700BFFEF704FE9E
:104C1000FEF77EFEFEF774FFFFF722F8FEF7A4FE14
:104C2000FFF7CEF8FDF7F2FE40F27810C2F2000076
:104C30000421FDF7EFFB40F2C410C2F20000042192
:104C4000FDF7E8FB40F22C10C2F200000021FDF756
:104C5000E1FB40F20044C4F6000420464FF48051CA
:104C60000022FBF7F3FE20464FF400510022FBF731
:104C7000EDFE20464FF480410022FBF7E7FE204680
:104C80004FF400410022FBF7E1FE40F21C00C2F2AB
:104C900000004FF47A7148F2A06241F20023C0F2A2
:104CA0000102C0F27A030EC0FFF7AEFE00F006F874
:104CB00000F076F8FFF75EFDF6E70000B0B540F2D1
:104CC0000044C4F6000420464FF48061FBF7B8FEB0
:104CD00098B940F21800C2F200000178022905D804
:104CE000C90040F2012222FA01F1017020464FF47E
:104CF0008061FBF7A5FE0028F8D020464FF4006144
:104D0000FBF79EFE78B940F21B00C2F2000001786A
:104D1000B1FA81F14909017020464FF40061FBF7B7
:104D20008FFE0028F8D020468021FBF789FEB0FADC
:104D300080F040F210054009C2F2000528702046BC
:104D40004021FBF77DFEB0FA80F0400968702046F4
:104D50002021FBF775FE48B120462021FBF770FEAD
:104D6000012807D10020A87009E000BF0120A87029
:104D7000322004E0A9780020012908BF32202978D8
:104D80006A78002301294FF0000108BF3221E97041
:104D9000012A08BF32232B716871B0BD00000000EA
:104DA0002DE9F04F81B02DED048B88B040F218054D
:104DB000C2F200052969D5E9010288420FD16B6969
:104DC0009A420CD1EB68AF69BB4208D12B786F785F
:104DD000BB4204D1AB78EF78BB4200F0178249F2B6
:104DE0008063C0F29803984238BF9A4206D3D5E94F
:104DF0000502C5E90110EA6006E000BFEF689F42C6
:104E0000F5D205F1100185C1E8782978A870002055
:104E10006970FDF79DFDA87820B1012800F0808021
:104E20001DE100BF6878022820D0012848D0002862
:104E300040F015812A6905F11C040FF21441204647
:104E400000F030FA102014214FF478422346FEF788
:104E5000CBFC6A6946F21921C0F60001204600F039
:104E600021FA1E20282148F21F4243E02A6905F159
:104E70001C0446F20C21C0F60001204600F012FA94
:104E80001E20142148F21F422346FEF7ADFC6A693A
:104E900046F21921C0F60001204600F003FA1E2058
:104EA000282148F21F422346FEF79EFCAA69E0A192
:104EB000204600F0F7F910203C214FF4784228E01A
:104EC0002A6905F11C0446F20C21C0F600012046B7
:104ED00000F0E8F91E20142148F21F422346FEF795
:104EE00083FC6A69D6A1204600F0DCF91020282155
:104EF0004FF478422346FEF777FCAA6946F2262152
:104F0000C0F60001204600F0CDF91E203C2148F2F9
:104F10001F422346FEF768FCA878012840F09F80D6
:104F2000687802282AD0012860D0002840F09780B5
:104F3000286944F6D356C1F26206A0FB060105F1CA
:104F40001C048A09CEA1204600F0ACF920201421CF
:104F50004FF478422346FEF747FC6869A0FB060140
:104F60008A0946F24121C0F60001204600F09AF974
:104F70002E20282148F21F425CE000BF286944F639
:104F8000D356C1F26206A0FB06018A0905F11C0492
:104F900046F23321C0F60001204600F083F92E20AE
:104FA000142148F21F422346FEF71EFC6869A0FB4D
:104FB00006018A0946F24121C0F60001204600F0B0
:104FC00071F92E20282148F21F422346FEF70CFCDF
:104FD000A869A0FB06018A09A1A1204600F062F998
:104FE00020203C214FF4784236E000BF286944F687
:104FF000D356C1F26206A0FB06018A0905F11C0422
:1050000046F23321C0F60001204600F04BF92E2075
:10501000142148F21F422346FEF7E6FB6869A0FB15
:1050200006018A0992A1204600F03CF9202028219F
:105030004FF478422346FEF7D7FBA869A0FB060190
:105040008A0946F24F21C0F60001204600F02AF9F5
:105050002E203C2148F21F422346FEF7C5FB8CA3BD
:10506000002000214CF6E072FEF7BEFB40F2781003
:10507000C2F200000768D5E9040140F2130405916B
:10508000A969C2F200040791FBF78DFA9FED620B4C
:1050900002460B4651EC100B04910646FBF714FA3E
:1050A0009FED5F0B53EC105B2A4602930195FBF7D3
:1050B000F2F8FBF798FA617809EE100A207803916C
:1050C000A1780691FBF76FFA9FED570B59EC10BBD7
:1050D0005A464B46FBF7F8F9B7EE008A39EE080A54
:1050E000804610EE100A8A46FBF76AFA02460B4623
:1050F00040465146FBF776F9FBF775FA00EE100AC9
:105100000020BDEEC91AB86211EE100ABDEEC00A49
:10511000F86210EE100AB86340F22C10C2F20000E0
:1051200004680598FBF73FFA0246B2463046049EF3
:105130000B463146FBF7C8F9DDF808802A4643469E
:10514000FBF7A9F8FBF74FFA09EE100A0398FBF7F3
:105150002AFA5A464B46FBF7B7F939EE080A0746D2
:1051600010EE100A0D46FBF72BFA02460B463846A6
:105170002946FBF737F9FBF736FA00EE100A002054
:10518000BDEEC91AA06211EE100ABDEEC00AE062BF
:1051900010EE100A606340F2C410C2F2000007680B
:1051A0000798FBF700FA02460B4650463146FBF7DC
:1051B0008BF9019A4346FBF76EF8FBF714FA09EEF8
:1051C000100A0698FBF7EFF95A464B46FBF77CF9B5
:1051D00039EE080A044610EE100A0D46FBF7F0F906
:1051E00002460B4620462946FBF7FCF8FBF7FBF985
:1051F00000EE100A0020BDEEC91AB86211EE100AC6
:10520000BDEEC00AF86210EE100AB86308B0BDEC3B
:10521000048B01B0BDE8F08F00000000FD43A44105
:10522000000000000000F0BF000000000000594036
:105230003E2043483320202530386420487A00003F
:105240003E2043483220202530386420487A000030
:105250003E2043483120202530386420487A000021
:105260003E20434833202025303564204B487A00C7
:105270003E20434832202025303564204B487A00B8
:105280003E20434831202025303564204B487A00A9
:10529000202020205351554152452057415645204A
:1052A000202020000FB4084B10B504A902AA0398CF
:1052B00000F0F0F8044602A9002000F082FC20462D
:1052C00010BC5DF814FB0000C35B000837B5144642
:1052D0000846064B6A46214600F0DCF8044669465B
:1052E000002000F06EFC20463EBD0000C35B0008BD
:1052F00002E008C8121F08C1002AFAD1704770479F
:10530000002001E001C1121F002AFBD170470000FC
:105310002DE9FF5F82B00021DDE90430020DDDF8E8
:1053200040B0034318D044F61050A2F2FF3242437B
:105330001514119801281FD0A5EB0B00401C5FEA43
:10534000000A4FF000064E4FDFF83891B046504645
:1053500015D5CAF1000413E0119801244AA30128CD
:1053600001D16FEA0B010298119AC0E90031C0E93E
:10537000024206B0BDE8F09FCBF10000DFE7044633
:105380000021404A491842EB0450CDE9001012E0D8
:10539000E00707D032463B4640464946FBF722F835
:1053A0008046894632463B4610461946FBF71AF8B6
:1053B00006460F466410002CEAD1DDE90401DDE960
:1053C0000023BAF1000F06DAFBF70CF842464B4611
:1053D000FBF708F805E0FBF777F842464B46FBF78A
:1053E00073F804460E460022284BFBF70BFA03D84D
:1053F0004FF0FF30014607E00022254B20463146A2
:10540000FAF749FFFBF7E6F9102409E0002C0ADB64
:105410000A220023FAF7FCFE039B30321A55641E61
:1054200050EA0102F2D1641C039AC4F1110314443E
:10543000119A012A03D0012208430DD10AE0084342
:1054400004D000204FF0110B119072E7A3EB0B0575
:105450006D1E0DE05B4504DD4FF0000205F1010516
:1054600004E003DA4FF00002A5F10105002AECD0B8
:1054700002981199C0E90231C0E9004579E70000BE
:10548000000014400000F03F300000000000F04336
:105490000000E03F2DE9FF4F95B09B468946064648
:1054A00000250FE2252877D100242746F84A01215C
:1054B000059400E0044316F8013F203B01FA03F095
:1054C0001042F7D130782A2811D06FF02F033078AE
:1054D000A0F13002092A16D8059A44F0020402EB22
:1054E000820203EB42021044761C0590EFE759F864
:1054F000042B0592002A03DA504244F4005405902C
:1055000044F00204761C30782E2816D116F8010FCC
:1055100044F004042A280DD06FF02F023078A0F157
:105520003003092B09D807EB870302EB4303C718A5
:10553000761CF3E759F8047B761C30786C280FD082
:1055400006DC4C2817D068280DD06A2814D104E056
:10555000742810D07A280FD10DE044F400140AE02A
:1055600044F4801401E044F440147278824202D181
:1055700004F58014761C761C307866280BD013DC7A
:10558000582877D009DC002875D04528F6D0462861
:10559000F4D047281AD19DE118E0632835D064285B
:1055A00079D0652812D195E1702873D008DC67287E
:1055B000F1D069286FD06E280DD06F2806D1B5E0E4
:1055C00073282CD0752875D0782874D05A4617992E
:1055D00090476D1C75E1C4F30250022809D00328DE
:1055E0000DD0D9F8001004280DD00D6009F1040980
:1055F00067E1D9F80010EA17C1E90052F6E7D9F8D7
:1056000000100D80F2E70D70F0E719F8041B8DF81B
:10561000001000208DF80100EA46012003E059F84F
:1056200004AB4FF0FF3061074FF0000102D40DE0F2
:1056300008F101018846B9420FDA8045F8DB1AF813
:1056400008100029F4D108E008F1010188468142E0
:10565000FADB1AF808100029F6D105985B46A0EB92
:10566000080721463846179A00F094FA284400EBC0
:10567000080507E04DE029E10DE01AF8010B5A4654
:1056800017999047B8F10108F7D25B462146384692
:10569000179A13E142E00A220092C4F302524FF03B
:1056A000000A022A08D059F804CB032A4FEAEC7109
:1056B0000AD00DE029E02AE009F1070121F00702F4
:1056C000F2E802C1914609E00FFA8CFC4FEAEC7156
:1056D000042A03D14FFA8CFC4FEAEC71002907DA57
:1056E0000A460021DCF1000C61EB02012D2202E0F0
:1056F000220504D52B228DF80420012203E0E207C5
:1057000001D02022F7E7904659E00A2102E010225A
:105710000DE010214FF0000A00910BE010224FF035
:10572000000A44F004040827009203E008224FF026
:10573000000A0092C4F30252022A05D059F804CBA1
:105740000021032A08D009E009F1070121F007022E
:10575000F2E802C1914605E01FFA8CFC042A01D14F
:105760000CF0FF0C4FF00008220728D5702806D057
:10577000009B83F0100353EA0A0305D00EE0402299
:105780008DF80420012208E05CEA010206D03022F4
:105790008DF804208DF8050002229046009B83F0CE
:1057A000080353EA0A030AD15CEA010201D1620745
:1057B00005D530228DF804204FF001087F1E5828AF
:1057C00004D034A003900EA802900DE036A0F9E7B3
:1057D00053466046009AFAF71BFD84460398825CA4
:1057E0000298401E029002705CEA0100F0D102981B
:1057F00006A9081A00F1200A600702D524F48034B3
:1058000000E00127574502DDA7EB0A0000E0002079
:1058100000EB0A01009005984144401A0590E0030E
:1058200006D45B462146179A059800F0B3F9054463
:10583000002706E001A85A46C05D179990476D1CE5
:105840007F1C4745F6DBE0030CD55B462146179AE3
:10585000059800F09FF9054404E030205A46179956
:1058600090476D1C0099481E00900029F5DC08E067
:10587000029802995A460078491C0291179990475C
:105880006D1CBAF10001AAF1010AF1DC65E100002A
:105890000928010030313233343536373839616206
:1058A00063646566000000003031323334353637CA
:1058B00038394142434445460000000000F058F9A1
:1058C0000544761C307800287FF4ECAD19B02846EA
:1058D000BDE8F08F620700D4062709F1070222F025
:1058E000070CFCE80223E14603F000485FEA080CDD
:1058F00002D00FF2702C0DE05FEA045C02D50FF2CB
:10590000682C07E05FEAC47C02D00FF2602C01E053
:10591000AFF2700C4FF0FF3823F00043CDF850C0C9
:1059200065280CD006DC452809D046281DD047281C
:105930003DD13DE0662818D067287ED138E00021AF
:10594000112F01DB112000E0781CCDE9000106A930
:105950000EA8FFF7DDFCDDE90F010E9A039100218F
:10596000009207F1010A04914DE04FF000400097CA
:10597000CDE9011006A90EA8FFF7CAFCDDE90F0268
:1059800003920E9B11990022DDF80CA00093049263
:1059900011B9791C00EB010AB7EB0A0004D4C0F17D
:1059A000FF3007F1010A0490AAEB0700019044E0E0
:1059B000012F00DA01270021112F01DD112000E065
:1059C0003846CDE9000106A90EA8FFF7A1FCDDE9E4
:1059D0000F010E9A0391002104910092BA4621070B
:1059E0000CD40399514500DA8A46BAF1010F05DD5E
:1059F000009AAAF10101515C302908D0B84202DABC
:105A000010F1040F06DA0121CDE9011015E0AAF129
:105A10000101E9E7002805DC049901440491AAEB9F
:105A2000000102E0411C514500DD8A460499401AFC
:105A3000401C01904FF000400290200704D40198D0
:105A4000504501DBCDF8048000208DF84F0002980E
:105A50000DF14F07B0F1004F25D02B200E9002988A
:105A60004FF0020800280CDA404202902D200E90E0
:105A700007E00A210298FAF7D2FD3031029007F8C8
:105A8000011DB8F10001A8F10108F2DC029800281C
:105A9000EFD1791E0E980870307800F0200040F0A9
:105AA000450007F8020D12A8C01B00F10708149862
:105AB000007800B1012000EB0A01019801EBE071D0
:105AC00005984144401A401E0590E00306D45B4609
:105AD0002146179A059800F05DF80544149800785F
